:10000000E8210020593A0000C38C0000113A00009A
:10001000113A0000113A0000113A0000113A0000B4
:10002000000000000000000000000000592B00004C
:10003000113A000000000000FD2A0000113A000003
:10004000E92B0000E92B0000E92B0000E92B000060
:10005000E92B0000E92B0000E92B0000E92B000050
:10006000E92B0000E92B0000E92B0000E92B000040
:10007000E92B0000E92B0000E92B0000E92B000030
:10008000E92B0000E92B0000E92B0000E92B000020
:10009000E92B0000E92B0000E92B0000E92B000010
:1000A000E92B0000E92B0000E92B0000E92B000000
:1000B000E92B0000E92B0000E92B0000E92B0000F0
:1000C000E92B0000E92B0000E92B0000E92B0000E0
:1000D000E92B0000E92B0000E92B0000E92B0000D0
:1000E000E92B0000E92B0000E92B0000E92B0000C0
:1000F000E92B0000E92B0000E92B0000E92B0000B0
:10010000E92B0000E92B0000E92B0000E92B00009F
:10011000E92B0000E92B0000E92B0000E92B00008F
:10012000E92B0000E92B0000E92B0000E92B00007F
:10013000E92B0000E92B0000E92B0000E92B00006F
:10014000E92B0000E92B0000E92B0000E92B00005F
:04015000E92B000097
:1001540053B94AB9002908BF00281CBF4FF0FF312A
:100164004FF0FF3000F00CB8ADF1080C6DE904CE8F
:1001740000F008F8DDF804E0DDE9022304B070477C
:10018400704700BF2DE9F04786468C460846089E16
:10019400154674461946002B40F0C1808542B2FAD8
:1001A40082F245D94AB1C2F1200300FA02FC95401B
:1001B40094402EFA03F343EA0C0C4FEA154EA8B20E
:1001C400230CBCFBFEF80EFB18CC08FB00F943EA39
:1001D4000C43994528D9EB1808F1FF3704D2994507
:1001E40002D9A8F102072B44A3EB0903A4B2B3FB81
:1001F400FEFC0EFB1C330CFB00F044EA0344A0425B
:1002040014D92C190CF1FF3304D2A04202D9ACF159
:1002140002032C44241A43EA07401EB1D4400023AD
:1002240034607360BDE8F0874746DDE76346F1E775
:1002340092BB431B01214FEA154EAFB2200CB3FB16
:10024400FEFC0EFB1C330CFB07F840EA0343984505
:1002540061D9EB180CF1FF3004D2984502D9ACF106
:1002640002002B44A3EB0803A4B2B3FBFEFC0EFB79
:100274001C330CFB07F744EA0344A7424DD92C195D
:100284000CF1FF3304D2A74202D9ACF102032C448F
:10029400E41B43EA0040C0E7C2F1200395409440C8
:1002A40020FA03F12EFA03F34FEA154E9040AFB251
:1002B4000343B1FBFEFC0EFB1C10190C0CFB07F8EE
:1002C40041EA0041884522D969180CF1FF3004D273
:1002D400884502D9ACF102002944A1EB08019BB284
:1002E400B1FBFEFC0EFB1C110CFB07F743EA0143B8
:1002F4009F420ED9EB180CF1FF3104D29F4202D970
:10030400ACF102012B44DB1B41EA004193E7604658
:10031400E3E76146F7E76046A4E76346B8E783424C
:1003240006D916B9002108467CE7C6E900E0F9E7DA
:10033400B3FA83F78FB9834201D3724508D8BEEB71
:10034400020460EB030301209C461EB9002169E707
:100354003846FAE7C6E9004CF8E7C7F1200CBB4081
:100364000EFA07F522FA0CF42EFA0CF1BA401C43EB
:1003740020FA0CF3B8404FEA144901431FFA84FEF3
:10038400B3FBF9F809FB18300B0C08FB0EFA43EA2F
:1003940000439A4540D9E31808F1FF3004D29A4546
:1003A40002D9A8F102002344A3EB0A0389B2B3FBE8
:1003B400F9F809FB183308FB0EFE41EA03418E45A8
:1003C4002CD9611808F1FF3304D28E4502D9A8F163
:1003D4000203214443EA0040A1EB0E01A0FB029872
:1003E4004145CE46434602D306D14D4504D2013899
:1003F400B9EB020E68EB0403002EA7D0B5EB0E0296
:1004040061EB030101FA0CFC22FA07F3F9404CEA10
:100414000303C6E9003199E74046C5E74346D9E7F7
:10042400F0B583B000AF6E4688B06B4613F110028E
:1004340031D00C2142B10846042901DD414C5C61F4
:10044400082801DD0A2098610B2927DD0C243AB124
:100454000321397100217971B971F97178681861D2
:1004640000216FF300016FF341016FF382016FF319
:10047400C501032363F3881104F47B7363F35221EE
:100484006FF3DE416FF3DF7100232F4808F0FCFAAD
:10049400B546012447E06FF00041CBE76FF01B0441
:1004A400D5E703FB01F101339C42FADA6E4688B0CA
:1004B4006B4613F110023BD0102072B1844604281D
:1004C40003DDDFF888E0C3F814E0BCF1080F00DDB9
:1004D4009C61BCF10C0F00DDD9610F282BDD1021CC
:1004E4003AB10420387100207871B871F8717868D5
:1004F40018616FF300056FF341056FF382056FF325
:10050400C505032363F3881501F47D7161F3522556
:100514006FF3DE456FF3DF75002329460A4808F0C0
:10052400B3FAB54601340A2C08DC01210B46BBE7BB
:100534006FF00040C1E76FF01B01D1E70C37BD46F7
:10054400F0BD00BFB8A60000C8A50000E8A60000E2
:100554002DE9F04198B000AFB24B07F108040FCB7E
:1005640007C42370B04BFB6202233B7100237B71F1
:10057400BB71FB717A68BA62194663F3000163F3D5
:10058400410163F3820163F3C501032262F388111D
:10059400082262F3522163F3DE4163F3DF7107F152
:1005A4002802A24808F070FA6D4688B06B4613F131
:1005B40010020ED00C2142B10846042901DD9C4CE6
:1005C4005C61082808DD022098610B293EDD0C24BB
:1005D40004E06FF00041EEE76FF01B043AB1032131
:1005E400397100217971B971F97178681861002144
:1005F4006FF300016FF341016FF382016FF3C501E3
:10060400032363F3881104F47B7363F352216FF3C0
:10061400DE416FF3DF710023844808F035FAAD46FC
:100624006E4688B06B4613F1100212D00C2142B111
:100634000846042901DD7F4C5C6108280CDD7E48F6
:1006440098610B2940F38B800C2407E06FF01B04A6
:10065400C4E76FF00041EAE76FF01B043AB10321ED
:10066400397100217971B971F971786818610021C3
:100674006FF300016FF341016FF382016FF3C50162
:10068400042363F3881104F47B7363F352216FF33F
:10069400DE416FF3DF71654D0023284608F0F4F95D
:1006A400B546664B7B6402263E7100247C71BC71A6
:1006B400FC717B683B64214664F3000164F34101EF
:1006C40064F3820164F3C50166F388114FF00808EE
:1006D40068F3522164F3DE4164F3DF71234607F1CA
:1006E4004002284608F0D0F9554BFB653E717C71F9
:1006F400BC71FC717B68BB65214664F3000164F343
:10070400410164F3820164F3C501012363F3881199
:1007140068F3522164F3DE4164F3DF71234607F189
:100724005802284608F0B0F96D463C717E7188B0D5
:100734006C4614F1100215D00E201AB1042801DD04
:10074400404B636100233B7002237B70BAB10828DD
:1007540001DD3D4BA36104F11C0300210DE06FF0AA
:100764001B047BE76FF00040E7E701F160063E44BD
:1007740016F8606C03F8016B01310129F5D90D28D5
:100784002DDD0E2342B10321397100217971B97134
:100794000121F9717868206100216FF300016FF382
:1007A40041016FF382016FF3C501032060F38811E7
:1007B400C3F3090363F352210D2363F3DE416FF3A3
:1007C400DF7107F10803194808F05EF9AD461F48C8
:1007D40009F095FA30B96037BD46BDE8F0816FF095
:1007E4001B03CFE74FF4D011194807F061F9002833
:1007F400F1DB4FF48031174807F05AF9134C4FF0EE
:10080400B8621721204607F017F91349134B4B60C0
:100814004FF400038B60204607F055F9104807F0A9
:100824005CF9FBE790A6000004A70000C8A500003F
:1008340024A7000030A70000A8A7000054A70000C8
:1008440074A7000094A7000098A7000038A3000034
:10085400BCA70000C4A70000700800202504000005
:10086400C02709002DE9F04F97B000AF8346BA6165
:100874003B61D7F88030C3F3C0033B62F96051B1E8
:100884009BF80260B14656B1D7F8803013F0010FDF
:1008940011D1002304E007F044F9F860F0E70023E5
:1008A4009BF803207A6242B1D7F8802012F0020F3D
:1008B40022D1002202E00123F2E7002202B9EBB1C7
:1008C4009BF80050AA00BA60DBF804207A610BEBB5
:1008D4008505BA69F2B1002B40F01281B9F1000F1D
:1008E40000F01D81D7F8803013F0040F40F01B8115
:1008F4000020F861064607E10122DFE7BB691BB16E
:100904003A69F96858469847FC6820465C37BD4602
:10091400BDE8F08FFC682BBBB9F1000F38D0D7F8D5
:10092400803013F004033B6127D04D4400233B6126
:1009340023E00444013501364E451AD22A780023B7
:100944005BF822201946B86907F000F9BAF1000FE4
:10095400EFD0D7F888309845EBD22AF8180008F180
:100964000108E6E70026B046C7F81CA0D7F884A023
:10097400E2E7C7F81080D7F81CA0D7F8803003F05E
:100984000503FB604FF00008A146C7F81CB0A1E0C6
:10099400C7F81090F1E700253B6A7BB9002D7BD0A6
:1009A400D7F8803013F0010F7BD1FB68002B71D195
:1009B4000223A9EB03098AE00125EDE7594678698A
:1009C40007F00BF90028E9D06C46002387F82C3097
:1009D400022387F82D308AB0694611F1100239D00C
:1009E40012251AB1042D01DDB34B4B61002387F8A6
:1009F4002830022387F829307ABB112D47DD1223D2
:100A040062B1042087F82C00002087F82D0087F8B5
:100A14002E00012087F82F00F86A08616FF3000A9E
:100A24006FF3410A6FF3820A6FF3C50A022161F37F
:100A3400881AC3F3090363F3522A6FF3DE4A6FF390
:100A4400DF7A002351469D4808F01EF8A546A9F117
:100A540002093CE06FF00045C3E72B46082D01DD99
:100A6400786988610C2B01DDC1F81CB001F1200309
:100A7400002009E000F1300C07F1280EF4441CF8C2
:100A840030CC03F801CB01300128F3D9B5E76FF07E
:100A94001B03B5E701238CE7D7F8803013F0020F6E
:100AA40015D0002322461946B86907F04FF8D7F845
:100AB400843053B13B69D7F88820934205D2D7F8E4
:100AC400842022F8130001333B610138814408F18A
:100AD400010835467B6A984510D22E4616F802BBAB
:100AE4006B78FA6952F82340754B9C42FFF453AF7C
:100AF400744B9C42FFF460AF00254DE74C4604E77D
:100B040007F144000023FB6118B14A46294608F066
:100B1400A0F94D444FF00008C7F804901EE00020EF
:100B2400F8610646F0E7FE6107F134000026EBE7C2
:100B340000253B6A33BB002D3BD0D7F8803013F03F
:100B4400010F26D0731C06F1300207F12801561854
:100B540006F8149CDEB208F1010825467B6A984524
:100B64004AD22C4614F802AB95F801905BF8293070
:100B7400534A9342DCD3534A934201D30025D8E726
:100B84000125D6E75146786907F027F80028D2D026
:100B9400E1E7D7F8803013F0040FDCD0FA69531C76
:100BA400303207F128010A4402F8249CDBB2FB61CD
:100BB400D1E7D7F8803013F0020F09D0731C06F187
:100BC400300207F12801561806F8149CDEB2C2E779
:100BD400F869431C00F1300107F128028A1802F871
:100BE40024AC02460232D2B2FA6107F1580252FA38
:100BF40083F303F8249CAEE7D7F804909BF8003005
:100C040087F854309BF80130334487F85530D7F8CF
:100C1400803013F0020F0ED1FB69C3F3470387F84A
:100C24005730D7F8803013F0010F06D113F0040FBA
:100C34003FD1002302E00023F1E7002387F8563078
:100C4400DBF800003863786DCBF80000D7F810802B
:100C54004246B9685846D7F818A0D047041EFFF694
:100C640054AE386BCBF80000C7F810804246F969DF
:100C740007F13400D047002857DB04EB0008B968BB
:100C840049447B6A01EB4301D7F810904A46FB685C
:100C9400591A2846D047041EFFF637AE08EB040560
:100CA4004FF000087E62C7F820B05646D7F884B0EB
:100CB4001FE0FB69C2E700BFCCA70000D0A500007D
:100CC400A0A2000024B400004FF0000A4A4601210B
:100CD40007F12C00B047002829DB0544534622467F
:100CE4004946304606F032FF002822DB054408F16D
:100CF40001087B6A984511DA08F1300307F12802EC
:100D0400134413F8143C87F82C303A6A52F8234001
:100D1400BBF1000FD8D03BF818A0D7E73A690021FF
:100D24000846BB6998472C46EFE50446EDE50446C2
:100D3400EBE50446E9E500BF08B5024B1B6898479C
:100D440008BD00BF00000020014B1860704700BFC1
:100D54000000002000B583B002460B46002100913C
:100D6400024800F035F903B05DF804FB3D0D0000C6
:100D740010B586B0044603900491002105910091BA
:100D840003A9064800F024F9059B049A934201DA6A
:100D94000022E254059806B010BD00BF317C00006B
:100DA4002DE9F04383B0044608461546238B13F01F
:100DB400080F05D103F0070600230093019355E0C3
:100DC400012909D043F02003238385F31188BFF35D
:100DD4006F8F03B0BDE8F08343F010032383F4E77F
:100DE400204606F08BFF43E0D4F814904A46694647
:100DF400204606F09CFF4FF00008238B03F0070702
:100E0400B74269D0A268002A66D0012243F00803E1
:100E1400238385F31188BFF36F8F002A64D1009B6D
:100E24002BB14B463A466946204606F0F9FFB8F125
:100E3400000F02D034492046C0474FF02003EFF39F
:100E4400118583F31288BFF36F8F238B23F008037C
:100E54002383238B13F0100F4CD023F01003238330
:100E64000120268B06F007060028AED00228B7D052
:100E74000028AAD0013804282AD801A353F820F066
:100E8400ED0D0000D50E0000990E0000AD0E00001F
:100E9400C10E00002369D3F800800621204606F025
:100EA40003FF4FF00009A8E72369D3F80480042165
:100EB400204606F0F9FE4FF000099EE72369D3F8B7
:100EC40008800521204606F0EFFE4FF0000994E764
:100ED4004FF00008C14690E7009A0AB1002295E756
:100EE400B8F1000F92D1B4E74A463946204606F0DD
:100EF400E3FE94E713F0200F04D023F020032383B0
:100F04000220AEE70020ACE7537E0000844608468A
:100F1400012226E09CF8003043F004038CF80030F2
:100F2400F2B101301CE09CF8003043F008038CF867
:100F34000030F5E79CF8003043F010038CF80030E3
:100F4400EEE79CF8003043F020038CF80030E7E72C
:100F54009CF8003043F040038CF80030E0E70022B6
:100F640042B30378203B102BF9D801A151F823F0A8
:100F7400390F0000630F0000630F0000470F0000EB
:100F8400630F0000630F0000630F0000630F000095
:100F9400630F0000630F0000630F00002B0F0000BD
:100FA400630F0000190F0000630F0000630F0000BF
:100FB400550F00009CF8003003F04403442B00D08C
:100FC40070479CF800306FF386138CF80030F7E715
:100FD4002DE9F04F91B006460D4691460393002447
:100FE40099F80000002800F0B982252808D009F1FA
:100FF40001092946B0470028C0F2B1820134EFE765
:101004000023049305930693079308930993494691
:1010140006A807F038F902909DF8193013F0010F73
:1010240000F09780039B1A1D03921F68002FC0F2E3
:1010340088809DF8193013F0040F00F09C80039B06
:101044001A1D0392D3F800A0BAF1000FC0F28A80EF
:101054000023079308939DF81A3003F007039DF8C3
:101064001910C1F3C301012B00F08E80022B00F094
:10107400D380042B00F02481032B00F03B819DF8E6
:10108400188018F0030B40F03B819DF81B30253B82
:10109400532B00F2CA81DFE813F04001C801C801F4
:1010A400C801C801C801C801C801C801C801C801F4
:1010B400C801C801C801C801C801C801C801C801E4
:1010C400C801C801C801C801C801C801C801C801D4
:1010D400C801C801C801C801C801C801C801C801C4
:1010E400C801C801C801C801C801C801C801C801B4
:1010F400C801C801C801C801C801C801C801C801A4
:101104008101C801C801C801C801C801C801C801DA
:10111400C801C801C8015E016701C801C801C8014E
:10112400C8016701C801C801C801C801BD01810126
:10113400A101C801C8014D01C8018101C801C8014C
:1011440081019DF8183043F004038DF818307F4274
:101154006FE79DF91830002B02DB4FF0FF3768E78B
:10116400079F66E79DF819306FF341038DF8193036
:101174004FF0FF3A6CE713F0020F02D0DDF820A025
:1011840066E74FF0FF3A63E7CB1E042B04D8DFE891
:1011940003F00B1D29353500039B1A1D03921B68B0
:1011A400DA170493059206E0039B1A1D03921B6849
:1011B400DA1704930592012928D002297FF45FAF3E
:1011C400BDF91030DA170493059258E7039B0733EF
:1011D40023F0070303F108020392D3E90023CDE9C6
:1011E4000423E8E7039B073323F0070303F1080212
:1011F4000392D3E90023CDE90423DCE7039B1A1D02
:1012040003921B68DA1704930592D4E79DF9103012
:10121400DA170493059232E7CB1E042B04D8DFE8D7
:1012240003F00B1F35414100039B1A1D03921B68F9
:101234000493002305931EE09DF81B30632B07D015
:10124400039B1A1D03921B6804930023059312E069
:10125400039B1A1D03921B680493002305930AE061
:10126400039B073323F0070303F108020392D3E936
:101274000023CDE9042301291CD002297FF4FFAE09
:10128400BDF81030049300230593F8E6039B07335D
:1012940023F0070303F108020392D3E90023CDE905
:1012A4000423E8E7039B1A1D03921B68049300239D
:1012B4000593E0E79DF81030049300230593DEE6E0
:1012C40008290BD0039B073323F0070303F108021B
:1012D4000392D3E90023CDE90423D0E6039B07332B
:1012E40023F0070303F108020392D3E90023CDE9B5
:1012F4000423C4E6039B1A1D03921B680493BEE6F1
:10130400029F3B464A462946304607F062F80028C9
:10131400C0F225810444B94662E629462520B04737
:101324000028C0F21C810134D8460DF13E0A4FF06A
:1013340000097FE0DDF81090BAF1000F07DB514699
:10134400484607F07CFD09EB000AD84672E048469F
:1013540007F06CFDF7E7049B8DF82830D8460DF1B3
:10136400290A0DF1280965E018F0080F05D118F0D5
:10137400100804D04FF0200801E04FF02B08049A25
:10138400059B002B02DB0492059308E0524263EBB9
:101394004303049205934FF02D0800E0D8460DF165
:1013A4003E0300930AAB06AADDE9040106F0A2FF9E
:1013B4008146BAF1000F6CDB0DF13E03A3EB090388
:1013C4009DF818206FF386128DF818209A4563D97A
:1013D400AAEB030307930DF13E0A2BE0049828B906
:1013E400D846DFF880A1AAF1050923E00DF13E03F8
:1013F40000930AAB06AA002106F07CFF81469DF803
:101404001A3043F010038DF81A3078238DF81B300E
:10141400D846CEE72246049906A806F0BBFFD84674
:101424000DF13E0A4FF0000904E0D8460DF13E0AE2
:101434004FF00009B9F1000F00F08D80AAEB090309
:10144400B8F1000F00D001339DF81A2012F0100FEC
:1014540025D0023307990B4412F0400F01D0089AAB
:101464001344002F31DDFF1A9DF8183013F0040FD8
:101474002BD113F0400F17D0B8F1000F17D0294625
:101484004046B04700286ADB0134D8464FF0300BA1
:101494000FE00DF13E0ACDE70DF13E0ACAE712F066
:1014A400080FD7D00133D5E74FF0200B01E04FF000
:1014B400300B3B465F1E002B07DD29465846B047DC
:1014C40000284CDB01343B46F4E7B8F1000F05D0AB
:1014D40029464046B047002841DB01349DF81A30C4
:1014E400C3F30012C3F3C0031A4305D029463020C6
:1014F400B047002833DB01349DF81A3013F0100F85
:1015040006D029469DF81B00B047002827DB01348C
:10151400079B03F1FF38002B07DD29463020B04735
:1015240000281CDB01344346F3E753464A46294668
:10153400304606F04EFF002811DB0444002F07DD7F
:1015440029462020B047002809DB0134013FF5E794
:10155400DDF8089044E5DDF8089041E5204611B037
:10156400BDE8F08F89A8000008B54FF02002EFF322
:10157400118382F31288BFF36F8F07F0D2FB034805
:1015840006F06CFB01F0FCF8FCE700BF8CA800003F
:1015940068B108B5064A074B1B680749A1FB03134A
:1015A4009B0C00FB03F042F00103984708BD704711
:1015B400B0A600005400002083DE1B434FF020033C
:1015C400EFF3118C83F31288BFF36F8F0121124B59
:1015D400C3F80015114A0223C2F8D0361048D0F8D7
:1015E400003223F0E04343F04053C0F80032D0F817
:1015F400043223F0E04343F04053C0F80432C2F80D
:101604000417C2F80419C2F8001B8CF31188BFF345
:101614006F8F0020704700BF001000500040005042
:1016240000258450062800D0704708B5014807F00B
:101634006EF900BF0040005000B583B00246084B6D
:101644000093082301930749684607F06DF90028C1
:1016540003DB0121684607F076F903B05DF804FB6B
:1016640068A300007989000010B5C4B20123A34027
:10167400054AC2F80835C0F3072003F013FB2046DF
:1016840004F05EF810BD00BF0070015038B5044688
:101694000D46C0F3072003F0B5F9C4F307439B00DC
:1016A400DBB23DB1E4B2064A44F00044D450C0F881
:1016B400804038BD0021C0F88010014AD150F8E7BD
:1016C40080A0025070B505460E46040EA40004F531
:1016D4008074C0F3072008F053F846B1EDB245F02A
:1016E4000045C0F88050A4B2044B1D5170BD0022C7
:1016F400C0F88020A4B2014B1A51F7E780A0025031
:1017040070B582B00446C0F30726304603F082F970
:10171400054600212046FFF7D5FF01212046FFF7AB
:10172400B5FF05F132020194044B009352000023EB
:10173400304608F049F802B070BD00BF658900006A
:10174400F0B583B000AF381D03F0F2FF314B98427F
:101754003BD06FF012046D4688B06B4613F1100253
:1017640052D00C213AB10846042901DD2A4E5E61AB
:10177400082800DD9C610B2949DD4FF00C0C3AB1BF
:101784000321397000217970B970F97038681861D3
:1017940000216FF300016FF341016FF382016FF3D6
:1017A400C501012363F388110CF47B7C6CF3522193
:1017B4006FF3DE416FF3DF710023184807F064F91B
:1017C400AD4620460C37BD46F0BD03F043FA041E77
:1017D40016DB7C710723BB710823FB717868FFF764
:1017E4002BFF041EB7DB3B79012101FA03F30C4AFA
:1017F400C2F804357868FFF765FF002CE1D0AAE74A
:10180400387903F09DFFF8E76FF00041AAE76FF025
:101814001B0CB4E70000AD0BBCA8000028A6000018
:101824000070015003F01CBE38B505460B4C00E0B7
:1018340010340B4B9C420FD263685B79002BF7D0BA
:101844002946204607F0B7F80028F1D023681B6822
:10185400294620469847EBE738BD00BF38A600006C
:1018640048A6000070B506460D46084C04E02A461A
:101874003146204698471034054B9C4204D22368D5
:101884009B69002BF3D1F6E770BD00BF38A60000BA
:1018940048A600002DE9F041074605460AE007EA9C
:1018A4000807144B03EB06135B68042219682046EF
:1018B40000F08CFAD5B195FAA5F6B6FA86F60D4C79
:1018C40004EB06140123B3406FEA030825EA030579
:1018D400237B002BEED03301064AD3581B69002B1F
:1018E400DDD0204698470028E4D1D8E73846BDE843
:1018F400F08100BF38A600002DE9F04180460F4674
:101904001E4BD3E8EF5F6A1CC3E8E12F0029F8D12E
:10191400002D2FD11A4C002607E0636804221968B1
:10192400204600F053FA01361034164B9C4213D271
:10193400237B002BF8D02368DB680BB12046984743
:1019440023681B69002BE8D0204698470028E4D080
:101954000123B3401D43E6E7B8F1000F0BD055B1A6
:101964002846FFF797FF0546002FF8D00A2007F016
:1019740028F8F4E700252846BDE8F0819008002007
:1019840038A6000048A6000008B5064B186018B138
:10199400054B1B68092B00DC08BD044805F046F81C
:1019A400FAE700BF840800208C080020D80100203A
:1019B40008B5024805F03AF808BD00BFD801002078
:1019C40030B589B000220F490F4808F043FC0F4D91
:1019D40000220023CDE90623002404940E2303935C
:1019E4000294019400940A4B4FF44072094928462A
:1019F40008F014FA0849284604F06AFE204609B0A3
:101A040030BD00BFB5190000A0060020E801002089
:101A1400311D0000A8110020F0A80000014B53F86C
:101A2400200070470CA9000048B108B5054A1060B1
:101A3400054B1960084600F0EBFB002008BD6FF071
:101A440015007047040000208008002008B5054BED
:101A54001B781BB1034B01221A7008BD024804F025
:101A6400E5FFF7E79C110020D8010020094BD3E8DB
:101A7400EF1F0131C3E8E21F002AF8D100B9704713
:101A8400054BD3E8EF1F0139C3E8E21F002AF6D063
:101A9400F7E700BF880800208C080020044B0020D2
:101AA4000146D3E8EF0FC3E8E21F002AF9D17047DB
:101AB4008808002038B5FFF7F1FF0546094C00E01F
:101AC4001034094B9C420BD263685B79002BF7D02E
:101AD40023685B68002BF3D0294620469847EFE73C
:101AE40038BD00BF38A6000048A60000034B1868A4
:101AF4000028D4BF00200120704700BF88080020C0
:101B040010B5044C0449204606F06AFD034B1C60E2
:101B140010BD00BF4C010020F8A800007C08002084
:101B240008B50023054A1370054A13604FF40041B9
:101B34000448FFF779FFFFF7E3FF08BD9D1100207C
:101B440088080020BF89000008B50146014806F056
:101B54004EFF08BD4C01002008B5024806F018FEEF
:101B640008BD00BF4C01002008B50146024B1868AF
:101B740006F043FF08BD00BF7C08002008B50248FA
:101B840006F03FFF08BD00BF4C01002010B582B035
:101B940000220023CDE90023264B187808B902B0AF
:101BA40010BD684606F036FF044668B1224BD3E800
:101BB400EF1F0139C3E8E21F002AF8D12046FFF7DE
:101BC40033FE2046FFF7D0FFFFF790FF58B91B4ABA
:101BD4001368516813F57A7341F100011360516081
:101BE400FFF7CCFFDBE708F01FFB4A0142EAD062B3
:101BF40043011B1A62EB0102920042EA93729B00BA
:101C04001B1842EB0102D20042EA5372C3F31033B1
:101C140043EA4243D20B0948016840685B1A62EB0D
:101C2400000240F2E9318B4272F10002CFD3FFF798
:101C340041FFCCE79C1100208C080020980600206E
:101C44000F4B1B7803B1704710B500210120FFF73B
:101C540053FE0C4C00E010340B4B9C4208D26368DA
:101C64005B79002BF7D023689B6820469847F2E7FE
:101C7400FFF78CFF0028FBD1014B01221A7010BD25
:101C84009D11002038A6000048A6000010B582B0BF
:101C9400194BD3E8EF2F511CC3E8E01F0028F8D1FB
:101CA400164B1B7863B9164B1B68BBB1C2B10A2A29
:101CB40014D1144808F0DAFA134804F0B7FE0DE022
:101CC4004FF02003EFF3118483F31288BFF36F8F77
:101CD400FFF75CFF84F31188BFF36F8F02B010BD70
:101CE40000220023CDE900234FF4004200230548DD
:101CF40005F0B0FCF2E700BF8C0800209D11002025
:101D040084080020A0060020D801002010B5044655
:101D1400044B1B689847A0602146034806F07EFEEA
:101D240010BD00BF040000204C0100202DE9F0414B
:101D340000210846FFF7E0FD804640B140F26766A7
:101D4400002705F06DFAFFF71FFE002515E04FF0A0
:101D5400FF364FF0FF37F4E74046FFF79BFD804620
:101D640070B94FF0FF364FF0FF3709E02C4632468A
:101D74003B46094804F07EFE2546B8F1000FEBD13E
:101D8400FFF704FF04460028F6D1002DEED0002111
:101D94000846FFF767FDEAE7D80100200248034B35
:101DA400C01AC008704700BF38A60000C8A50000CC
:101DB40010B50C46FFF7F2FFA04203D9024B53F8CB
:101DC400340010BD0020FCE7C8A5000008B5094B8D
:101DD400C31A1B110133D0F804C08CF804304368D3
:101DE4009A7143681960436801225A71FFF72EFE05
:101DF40008BD00BF38A6000000B589B0059206935F
:101E04000023079362B1074A0C9B02930B9B019337
:101E14000A9B009305ABFEF725FD09B05DF804FBB2
:101E24000022F1E7318A00000EB400B584B0014607
:101E340005AB53F8042B0393002000900348FFF7ED
:101E4400C7F804B05DF804EB03B07047C98B000019
:101E540030B585B011F0440F05D01A4B1C6834B965
:101E6400002005B030BD1849FFF7DEFFF9E7174B36
:101E74001968B2FBF1F1B1FBF4FC154AA2FB0C3278
:101E8400D20A4FF4616E0EFB12CE124BA3FB0E531B
:101E94005B0904FB1C114FF47A7C0CFB01F1B1FBD0
:101EA400F4F504FB15110CFB01F1B1FBF4F1029103
:101EB4000195C3EB0311AEEB810100910649FFF7D5
:101EC400B3FFCEE7980800202CA900009408002056
:101ED400C5B3A2918988888838A9000061B108B582
:101EE4002AB1064A52F8232012B9054A00E0044AEE
:101EF4000449FFF799FF08BD704700BFD4A900004B
:101F040054A9000094A700002DE9F041054690462D
:101F14001E46069F81B900242EB132461049284638
:101F2400FFF782FF0444B7B1B8F1000F0DD0079B4F
:101F3400042B13D00B4909E00B4B079A53F82220CA
:101F44000A49FFF771FF0446E6E706493A46284680
:101F5400FFF76AFF04442046BDE8F0810449F5E731
:101F640070A9000060A90000E8A9000068A90000A9
:101F74005CA900002DE9F04F85B005460C461646D5
:101F840003939DF8408001F0020B01F0010AC1F3B4
:101F9400C00906F049FDD8B1024612492846FFF7A8
:101FA40043FF0746BBF1000F14D142465146284671
:101FB40006F0C8FDCDF804800F9B00930E9B3246BB
:101FC40049462846FFF7A0FF384405B0BDE8F08F26
:101FD4000027E7E7039A21462846FFF739FF07441D
:101FE400E3E700BF74A9000011F0100F0BD108B58E
:101FF40011F0200F03D00449FFF716FF08BD034971
:10200400FFF712FFFAE7704794B3000000B4000032
:102014002DE9F04105460F46164698460699FFF706
:10202400E3FF0024444505DA23492846FFF7FCFE74
:102034000134F7E7002409E01F492846FFF7F4FEBE
:102044000BE01E492846FFF7EFFE01340F2C0CDC91
:10205400002C02DD14F0070FEED0B442F1D23A5D49
:1020640017492846FFF7E0FEEFE716492846FFF731
:10207400DBFE002409E010492846FFF7D5FE0BE0FB
:1020840011492846FFF7D0FE01340F2C12DC002C36
:1020940002DD14F0070FEED0B44206D23A5DA2F18D
:1020A40020035E2BECD92E22EAE703492846FFF7EA
:1020B400BBFEE9E7BDE8F0816CA9000080A900003F
:1020C40078A9000084A9000088A900002DE9F04146
:1020D40084B004469DF828500B9F0D9E95B9012BA2
:1020E4001BD017484FF0000827B13B46224615493C
:1020F40005F043FDAEB9EDB9204606F056FD04B037
:10210400BDE8F0810295019300920B4600220E99DE
:10211400FFF730FF80460C48E6E70B484FF0000815
:10212400E2E70E9B0093434632460C99204606F0A4
:1021340021FDE0E72A460E99204606F00FFDDBE775
:10214400F98B0000398B0000C98B00002DE9F041A8
:1021540086B005460C461746D1F808800E88C6F3AB
:1021640082160878C0F3C2004B6833B1114A9B1A37
:1021740043F3CF01002918DA0023224652F8101B3A
:10218400C1F349216088C0F3CB00541801B900227F
:102194000497039002940192009600224146284637
:1021A400FFF794FF06B0BDE8F081FFF701FE034698
:1021B400E3E700BFC8A5000070B582B00446056817
:1021C40042F20F738B4228BF0B460E4A0521684624
:1021D40005F052FD064663685B680B220A492846EF
:1021E40006F09BFC63685B6832466946284606F045
:1021F40094FC63685B681B220449284606F08DFC46
:1022040002B070BD6CA80000A8A900008CA9000051
:10221400074B01221A6004E04008054A13685B007A
:102224001360044B9842F7D8034B1860704700BF03
:102234009408002040420F009808002070B506461C
:102244000D46002405E0315D044883685B689847C7
:102254000134AC42F7D3284670BD00BF50A3000040
:10226400014B196000207047B408002008B5034BE7
:1022740001221A70024806F098FC08BD9E11002045
:1022840038AA000008B50248FFF796FF08BD00BF52
:1022940038AA000010B50C46044B1868FFF7BEFBC3
:1022A40003460F2221460248984710BDB408002077
:1022B40038AA000070B505464FF02003EFF31186ED
:1022C40083F31288BFF36F8F0E4B1C680DE0A26876
:1022D4003AB10D4B1B7D03EB43030C4911F823006A
:1022E40090472346246804B123B12CB1002DEED0CD
:1022F4006268EDE71C46F8E786F31188BFF36F8F39
:1023040070BD00BFD0080020880F0020C408002042
:1023140008B5064B23B14178007806F0FFFA08BDF2
:10232400002383F31188BFF36F8FF8E7218900003E
:1023340070B50E4B1C7D21460D4806F06BFC00B9B0
:1023440070BD650004EB44000A4E06EB8000FFF705
:10235400DFFF0020FFF7AEFF2B19990006EB830384
:10236400002272505A609A60EAE700BF880F00208A
:10237400D8080020C4080020F8B50546384B1C7D59
:102384004FF02003EFF3118683F31288BFF36F8FAE
:1023940004EB4402334B13F82230002B39D0324B78
:1023A40003EB820C2F4F4FEA820E07EB820393E874
:1023B40007008CE80700002307F80E3086F3118825
:1023C400BFF36F8F04EB4403274A12F82330002B2A
:1023D40044D0B5F1FF3F2BD104F006FC0120FFF7F8
:1023E40069FF2146214806F02DFC214B5BB11E4AB2
:1023F40004EB440302EB830304EB4404597812F81E
:102404002400FFF70FF9FFF793FF04F0EFFD01201D
:10241400F8BD0146204600F031F80028CED004EB88
:102424004401114B03EB810307C883E80700C5E7A8
:1024340004EB44020C4B03EB82039868410CC00389
:102444000C4BC0180C4A4FF0000341F10001FDF79A
:102454007FFE0121281A07F0B8FEBDE70020D7E768
:10246400880F0020B8080020C4080020D8080020E5
:10247400291600003F420F0040420F002DE9F041B1
:1024840082B00E4601A900F045F8441E24B207E0CC
:10249400B6F1FF3F33D08044B04530D9013C24B27B
:1024A400002C2BDB019B04EB440203EB82056978CF
:1024B40013F8220006F0D5FB0028EFD16868410C20
:1024C400C003114FC019114A4FF0000341F100013C
:1024D400FDF73EFE8046AB68590CDB03D8190B4A66
:1024E4004FF0000341F10001FDF732FE084B1B6879
:1024F400B3F1FF3FCCD08342CAD8CFE700252846AA
:1025040002B0BDE8F08100BF3F420F0040420F001F
:102514000800002008B9024B0B600020704700BF80
:102524004CAA000008B5024805F044F908BD00BFF4
:102534004CAA0000B0F5680F17D00CD840F6BA6367
:10254400984214D0B0F5683F13D03A2801D0012046
:10255400704700207047094B98420CD0084B9842B2
:1025640001D00120704700207047002070470020F0
:102574007047002070470020704700BF3A00003ABF
:102584002C5F5CA928B308B54368B3F5683F0AD04B
:10259400B3F5680F14D012498B421FD0006804F0C1
:1025A40007FA002014E003680022D3E8EF1F012992
:1025B40003D1C3E8E02F0028F7D10DD1104607E07E
:1025C40003681B7803F580730020064A42F8230051
:1025D40008BD6FF4E04070470348F9E70348F7E7A4
:1025E4002C5F5CA900000350E98FFFFFEA8FFFFF17
:1025F40088B308B54368B3F5683F0FD0B3F5680FE7
:1026040019D016498B4224D000684FF0FF324FF0A6
:10261400FF3304F049F968B111480BE00368012263
:10262400D3E8EF1F002903D1C3E8E02F0028F7D136
:102634000BD1002008BD03681B7803F58073094A99
:1026440052F823301BB90020F4E70548F2E70448A8
:10265400F0E70548EEE76FF4E04070472C5F5CA9B3
:10266400E98FFFFF00000350EA8FFFFF10B5044617
:10267400A8B16368B3F5683F10D0B3F5680F0DD007
:102684000C4A93420AD013F4686F0DD021460A48CD
:1026940007F072FB00232360064B636010BD074BF9
:1026A4005B6807489847E4E714220021206806F095
:1026B400FFFBF1E72C5F5CA9DC0D0020E0000020AB
:1026C40054AA000010B5044668B36068B0F5683FCA
:1026D40028D0B0F5680F25D0174B984228D0FFF7C3
:1026E40029FFC0B14FF0FF324FF0FF3321461348AA
:1026F40003F09AFF08B923681BB9114B5B681148B2
:10270400984714220021206806F0D2FB002363605E
:102714004FF468636360206807F0BEFB636843F0AE
:102724003A03636010BD064B5B6807489847CCE7E3
:102734002368002BD3D1D5E72C5F5CA9DC0D0020E6
:10274400E00000207CAA000054AA000008B5402341
:1027540014220449044807F001FB0449044805F025
:102764009BF808BDDC080020DC0D0020ACAA0000AA
:10277400C0AA0000014910220A60704710ED00E071
:1027840072B6404080F31188BFF36F8FBFF34F8F51
:1027940030BF62B6BFF36F8F704700BF72B6494057
:1027A40081F3118820BF80F3118862B6704700BF9F
:1027B4002DE9F04182B000AF0446D0F800E0D0F833
:1027C40004C086686D468AB06B4613F1100200F0AF
:1027D400F38014218AB10846042903DDDFF8088256
:1027E400C3F81480082801DDC3F818E00C2801DDC3
:1027F400C3F81CC0102800DD1E62132940F3DF80DB
:102804004FF0140C3AB10521397100217971B97175
:10281400F9717868186100216FF300016FF34101C9
:102824006FF382016FF3C501012363F388110CF484
:102834007D7C6CF352216FF3DE416FF3DF71002373
:102844006A4806F021F9AD46D4F80CE0D4F810C07B
:1028540066696D468AB06B4613F1100200F0B280CF
:1028640014218AB10846042903DDDFF88481C3F802
:102874001480082801DDC3F818E00C2801DDC3F832
:102884001CC0102800DD1E62132940F39E804FF007
:10289400140C3AB10521397100217971B971F971BA
:1028A4007868186100216FF300016FF341016FF341
:1028B40082016FF3C501012363F388110CF47D7C5D
:1028C4006CF352216FF3DE416FF3DF71002347484D
:1028D40006F0DAF8AD46E6696D4688B06B4613F14A
:1028E400100275D00C214AB10846042903DDDFF833
:1028F40004C1C3F814C0082800DD9E610B296ADDF9
:102904004FF00C0C3AB10321397100217971B9717E
:10291400F9717868186100216FF300016FF34101C8
:102924006FF382016FF3C501012363F388110CF483
:102934007B7C6CF352216FF3DE416FF3DF71002374
:102944002A4806F0A1F8AD46A46988B06B4613F195
:10295400100243D00C213AB10846042901DD264D6A
:102964005D61082800DD9C610B293ADD0C243AB135
:102974000321397100217971B971F971786818618D
:1029840000216FF300016FF341016FF382016FF3D4
:10299400C501012363F3881104F47B7464F35221A9
:1029A4006FF3DE416FF3DF710023104806F06CF81B
:1029B4000837BD46BDE8F0816FF000410AE76FF0CB
:1029C4001B0C1FE76FF000414BE76FF01B0C60E737
:1029D4006FF0004187E76FF01B0C93E76FF0004145
:1029E400B9E76FF01B04C2E7D0AA000010A60000EC
:1029F40000AB000030AB000040AB0000002807DB58
:102A040000F01F02400901239340024A42F820309B
:102A1400704700BF00E100E000280CDB00F01F025B
:102A24004009012393402030034A42F82030BFF389
:102A34004F8FBFF36F8F704700E100E0002808DB81
:102A44004901C9B200F1604000F5614080F800130B
:102A5400704700F00F004901C9B2014B1954704787
:102A640014ED00E04209054B53F8222000F01F004A
:102A7400012303FA00F01040704700BF00E100E0BA
:102A840030BFFFF7FDBF00BF08B50B4B0B4A22F068
:102A94007F029A60BFF34F8FBFF36F8FD3F8882004
:102AA40022F47002C3F8882003F008FD04F0F6FB5A
:102AB40000F0B6FF03F05EFD00ED00E00000000052
:102AC4000A4A9368C3F8A80009490968C3F8AC1016
:102AD40008494B6843F080534B60002383F311880B
:102AE400BFF36F8F9368D3F8AC007047880F002052
:102AF4006CB2000000ED00E014498A684FF0300029
:102B04001044EFF3098C80E8F01F202080F3128832
:102B1400BFF36F8F0E4F4FF00066CA698A603E6044
:102B2400D2F8A8000023C2F8A83080F3118802F17B
:102B3400300090E8F01F8CF3098802F1000004B51E
:102B440006F0C3F8BDE8044070470000880F002079
:102B540004ED00E01EF0040F0CBFEFF30880EFF368
:102B64000980816911F8021C0229FFD001B506F021
:102B74008AF801BD10B4A2F120040E4942F8081CE1
:102B840021F0010142F8081C42F8203C019B42F864
:102B94001C3C029B42F8183C039B42F8143C4FF047
:102BA400807342F8043C04650023C0F8A83010BCCC
:102BB400704700BF997C0000094B9860D0F89830AA
:102BC40083F30B88104681F30988002163B681F3EF
:102BD4001188BFF36F8F0022002305F05BF800BF5C
:102BE400880F002001B572B60B4A906900281EBFF9
:102BF4000021916107F034F962B6EFF30580A0F18A
:102C040010004FEAC0000549014409C99847BDE8CE
:102C14000140034908470000880F002080A30000FA
:102C2400292C0000044B9968D869884203D00349D1
:102C34004FF080520A607047880F002004ED00E0D6
:102C440081690D4B5A6942F480725A61BFF34F8F08
:102C5400BFF36F8F31F8021C5A6922F480725A61F3
:102C6400BFF34F8FBFF36F8F4DF60273994201D0BC
:102C7400002070470120704700ED00E010B588B0D7
:102C840000241C7002F07F44B4F17F4F34D102F071
:102C94000C04082C05D012F0080F2AD0084608B0FE
:102CA40010BD164B079302238DF8043000248DF8D1
:102CB40005408DF806408DF80740019B0693214698
:102CC40064F3000164F3410164F3820164F3C50118
:102CD400012363F38811082363F3522164F3DE4173
:102CE40064F3DF71234606AA054805F0CDFE2046AD
:102CF400D5E701221A70D2E70020D0E770AB0000BC
:102D040010A600002DE9F041A6B000AF05460E461E
:102D14001446AF4BFB6102233B7100237B71BB71F3
:102D2400FB717A68BA61194663F3000163F34101E8
:102D340063F3820163F3C501012262F3881108225F
:102D440062F3522163F3DE4163F3DF7107F118028A
:102D5400A04805F099FEA04B9B6A13F0100F35D1E3
:102D64009D4B9B6A13F0080F53D19B4B9B6A13F046
:102D7400020F71D1984B9B6A13F0010F40F0E08071
:102D8400954B9B6A13F0200F40F0FD80924B9B6A99
:102D940013F0100F01D1904B9B6A8F4B9B6A13F079
:102DA400200F04D08C4A536A23F4005353628A4A96
:102DB400936A43F0FF0393620121284605F08AFFDA
:102DC400207000209837BD46BDE8F081834B7B63BB
:102DD40002233B7100237B71BB71FB717A683A63F8
:102DE400194663F3000163F3410163F3820163F362
:102DF400C501012262F38811082262F3522163F3B0
:102E0400DE4163F3DF7107F13002724805F03CFEE6
:102E1400A6E7734BFB6402233B7100237B71BB71F8
:102E2400FB717A68BA64194663F3000163F34101E4
:102E340063F3820163F3C501012262F3881108225E
:102E440062F3522163F3DE4163F3DF7107F1480259
:102E5400604805F019FE88E7624B7B6602233B71EC
:102E640000237B71BB71FB717A683A66194663F380
:102E7400000163F3410163F3820163F3C50101229D
:102E840062F38811082262F3522163F3DE4163F393
:102E9400DF7107F160024F4805F0F6FD4E4B586BA9
:102EA4009B6A13F0800F3FF465AFE84688B06B4629
:102EB40013F1100211D00C2152B18C46042903DD08
:102EC400DFF824E1C3F814E0BCF1080F08DD9861D1
:102ED4000B2932DD4FF00C0C04E06FF00041EBE7FE
:102EE4006FF01B0C3AB10321397100217971B9716A
:102EF400F9717868186100216FF300016FF34101E3
:102F04006FF382016FF3C501012363F388110CF49D
:102F14007B7363F352216FF3DE416FF3DF710023A0
:102F24002C4805F0B1FDC546002E3FF423AF2A4AD4
:102F3400936A23F0800393621CE76FF01B0CD1E7C4
:102F44002A4BFB6702233B7100237B71BB71FB712E
:102F54007A68BA67194663F3000163F3410163F3C6
:102F6400820163F3C501012262F38811082262F32E
:102F7400522163F3DE4163F3DF7107F178021548F0
:102F840005F082FDFCE61A4BC7F8943002233B712E
:102F940000237B71BB71FB717A68C7F890201946D6
:102FA40063F3000163F3410163F3820163F3C50139
:102FB400012262F38811082262F3522163F3DE4195
:102FC40063F3DF7107F19002024805F05DFDDDE671
:102FD4009CAB000010A6000000ED00E0B4AB0000C4
:102FE400E8AB0000FCAB000014AC00002CAC00000B
:102FF4004CAC00002DE9F041ACB000AF05460E46E4
:103004001446BC4BFB6102233B7100237B71BB71F3
:10301400FB717A68BA61194663F3000163F34101F5
:1030240063F3820163F3C501012262F3881108226C
:1030340062F3522163F3DE4163F3DF7107F1180297
:10304400AD4805F021FDAD4B9B6A13F4805F2AD196
:10305400AA4B9B6A13F4006F48D1A84B9B6A13F4E4
:10306400007F66D1A54B9B6A13F4806F40F0D58036
:10307400A24B9B6A13F4807F40F0F2809F4B9B6AC3
:1030840013F4005F40F011819C4A936A43F47F4338
:1030940093620121284605F01DFE20700020B03700
:1030A400BD46BDE8F081964B7B6302233B71002350
:1030B4007B71BB71FB717A683A63194663F3000153
:1030C40063F3410163F3820163F3C501012262F3F7
:1030D4008811082262F3522163F3DE4163F3DF7146
:1030E40007F13002844805F0CFFCB1E7854BFB645F
:1030F40002233B7100237B71BB71FB717A68BA6454
:10310400194663F3000163F3410163F3820163F33E
:10311400C501012262F38811082262F3522163F38C
:10312400DE4163F3DF7107F14802734805F0ACFC3C
:1031340093E7754B7B6602233B7100237B71BB7164
:10314400FB717A683A66194663F3000163F341013F
:1031540063F3820163F3C501012262F3881108223B
:1031640062F3522163F3DE4163F3DF7107F160021E
:10317400614805F089FC614B986B9B6A13F4004F1E
:103184003FF470AFE84688B06B4613F1100211D0DB
:103194000C2152B18C46042903DDDFF870E1C3F839
:1031A40014E0BCF1080F08DD98610B2932DD4FF003
:1031B4000C0C04E06FF00041EBE76FF01B0C3AB12C
:1031C4000321397100217971B971F9717868186135
:1031D40000216FF300016FF341016FF382016FF37C
:1031E400C501012363F388110CF47B7363F352214B
:1031F4006FF3DE416FF3DF7100233F4805F044FCB9
:10320400C546002E3FF42EAF3C4A936A23F4004394
:10321400936227E76FF01B0CD1E73D4BFB6702235A
:103224003B7100237B71BB71FB717A68BA671946E5
:1032340063F3000163F3410163F3820163F3C501A6
:10324400012262F38811082262F3522163F3DE4102
:1032540063F3DF7107F17802274805F015FC07E7EF
:103264002C4BC7F8AC3002233B7100237B71BB713C
:10327400FB717A68C7F8A820194663F3000163F369
:10328400410163F3820163F3C501012262F38811F2
:10329400082262F3522163F3DE4163F3DF7107F125
:1032A400A802154805F0F0FBEEE61B4BC7F8943076
:1032B40002233B7100237B71BB71FB717A68C7F8F1
:1032C4009020194663F3000163F3410163F3820123
:1032D40063F3C501012262F38811082262F35221CB
:1032E40063F3DE4163F3DF7107F19002024805F0F6
:1032F400CBFBC9E67CAC000010A6000000ED00E0AA
:1033040094AC0000E8AB0000A8AC0000C4AC000022
:10331400DCAC0000F8AC00004CAC000010B5B2B05E
:10332400AF4B079302238DF8043000238DF805304A
:103334008DF806308DF80730019A0692194663F32A
:10334400000163F3410163F3820163F3C5010122C8
:1033540062F38811082262F3522163F3DE4163F3BE
:10336400DF7106AA9F4805F08FFB9F4B9B6A13F001
:10337400007F2BD19C4B9B6A13F0807F4CD19A4BDE
:103384009C6A14F480146DD1974B9B6A13F4002F3C
:1033940040F08E80944B9B6A13F4802F40F0AE80F3
:1033A400914B9B6A13F4003F40F0CE808E4B9B6A96
:1033B40013F4803F40F0EE808B4A936A6FEA034334
:1033C4006FEA13439362204632B010BD874B0D93CE
:1033D40002238DF8043000238DF805308DF8063073
:1033E4008DF80730019A0C92194663F3000163F3D8
:1033F400410163F3820163F3C501012262F3881181
:10340400082262F3522163F3DE4163F3DF710CAAF5
:10341400744805F039FBADE7754B139302238DF81F
:10342400043000238DF805308DF806308DF8073010
:10343400019A1292194663F3000163F3410163F3A5
:10344400820163F3C501012262F38811082262F349
:10345400522163F3DE4163F3DF7112AA614805F080
:1034640013FB8CE7634B199302248DF8044000236B
:103474008DF805308DF806308DF80730019A1892D2
:10348400194663F3000163F3410163F3820163F3BB
:10349400C501012262F38811082262F3522163F309
:1034A400DE4163F3DF7118AA4E4805F0EDFA6BE7CD
:1034B400514B1F9302238DF8043000238DF80530FF
:1034C4008DF806308DF80730019A1E92194663F381
:1034D400000163F3410163F3820163F3C501012237
:1034E40062F38811082262F3522163F3DE4163F32D
:1034F400DF711EAA3B4805F0C7FA4BE73F4B259303
:1035040002238DF8043000238DF805308DF8063041
:103514008DF80730019A2492194663F3000163F38E
:10352400410163F3820163F3C501012262F388114F
:10353400082262F3522163F3DE4163F3DF7124AAAC
:10354400284805F0A1FA2BE72D4B2B9302238DF885
:10355400043000238DF805308DF806308DF80730DF
:10356400019A2A92194663F3000163F3410163F35C
:10357400820163F3C501012262F38811082262F318
:10358400522163F3DE4163F3DF712AAA154805F083
:103594007BFA0BE71B4B319302238DF80430002395
:1035A4008DF805308DF806308DF80730019A309289
:1035B400194663F3000163F3410163F3820163F38A
:1035C400C501012262F38811082262F3522163F3D8
:1035D400DE4163F3DF7130AA024805F055FAEBE6E9
:1035E40010AD000010A6000000ED00E028AD0000C2
:1035F4003CAD000058AD000084AD0000A4AD000057
:10360400CCAD0000E8AD0000F0B59BB000AF0646BD
:103614000D46854BFB6102233B7100247C71BC7118
:10362400FC717B68BB61214664F3000164F34101D2
:1036340064F3820164F3C501012363F38811082351
:1036440063F3522164F3DE4164F3DF71234607F12F
:103654001802764805F018FA2C70754BDC6A14F0E1
:1036640002040CD1724BDB6A002B2CDB704BDC6A3E
:1036740014F080444AD120466C37BD46F0BD6D4BF2
:103684007B6602233B7100247C71BC71FC717B68F6
:103694003B66214664F3000164F3410164F3820153
:1036A40064F3C501012363F38811082363F35221F2
:1036B40064F3DE4164F3DF71234607F160025B4883
:1036C40005F0E2F9D7E75C4BFB6402233B7100236E
:1036D4007B71BB71FB717A68BA64194663F30001AC
:1036E40063F3410163F3820163F3C501012262F3D1
:1036F4008811082262F3522163F3DE4163F3DF7120
:1037040007F14802494805F0BFF9B4E74B4B7B6326
:1037140002233B7100237B71BB71FB717A683A63AE
:10372400194663F3000163F3410163F3820163F318
:10373400C501012262F38811082262F3522163F366
:10374400DE4163F3DF7107F13002384805F09CF97C
:103754003046FFF775FA002842D034686D4688B0C9
:103764006B4613F110020FD00C214AB1084604290C
:1037740003DDDFF8CCC0C3F814C0082807DD9C6162
:103784000B292ADD0C2404E06FF00041EDE76FF013
:103794001B043AB10321397100217971B971F971AE
:1037A4007868186100216FF300016FF341016FF332
:1037B40082016FF3C501012363F3881104F47B7361
:1037C40063F352216FF3DE416FF3DF710023174877
:1037D40005F05AF9AD4634684DE76FF01B04D8E79D
:1037E400134B9B6A13F0FF0F0FD1114B9C6A14F417
:1037F4007F4411D10E4B9B6AB3F5803FFFF43BAF7E
:103804003046FFF78BFD044635E72A460121304652
:10381400FFF778FA04462EE72A4601213046FFF7DF
:10382400E9FB044627E700BF14AE000010A6000021
:1038340000ED00E02CAE000050AE000060AE0000D1
:1038440080AE000000B589B000230B70134A0792C4
:1038540002228DF804208DF805308DF806308DF89D
:103864000730019A0692194663F3000163F341019C
:1038740063F3820163F3C501012262F38811082214
:1038840062F3522163F3DE4163F3DF7106AA044855
:1038940005F0FAF809B05DF804FB00BF9CAE000027
:1038A40010A6000090B583B000AF0F2923DC304C84
:1038B400103900233B7102237B718AB0EC461CF162
:1038C40010021AD0122022B1042802DD294BCCF8B0
:1038D400143000233B7002237B70E2B103460828B6
:1038E40001DDCCF818400C2B01DDCCF81C100CF1D8
:1038F400200300210DE0204CDAE76FF00040E2E7FE
:1039040001F1080404EB070E1EF808EC03F801EBC0
:1039140001310129F4D9112826DD12234AB10421E9
:10392400397100217971B9710121F9717868CCF884
:10393400100000216FF300016FF341016FF3820166
:103944006FF3C501012060F38811C3F3090363F326
:1039540052216FF3DE416FF3DF710023074805F056
:1039640093F80C37BD4690BD6FF01B03D6E700BF3C
:10397400C0AE0000F4AE0000D8AE000010A60000F7
:1039840030B58BB01A4B5C68C4F30804002383F38E
:103994001188BFF36F8F0DF12603FFF76FF905460A
:1039A4000DF12702214605F097F99DF827300BB158
:1039B4000BB030BD04462022294601A805F049FA7F
:1039C4009DF826304BB1089BC3F308025AB96FEA3D
:1039D40053236FEA4323089305E0089B23F4FF7302
:1039E40023F00103089301A9204605F040F9DFE71D
:1039F40000ED00E0044B5A6942F010025A615A6922
:103A040042F480625A61704700ED00E0EFF30880F1
:103A1400EFF3098101B57246FFF7B2FF01BD00BFA4
:103A2400002207E003F1604303F56143202183F89A
:103A340000130132442A09DC53B2002BF2DA03F0FA
:103A44000F030349194420230B76F2E7704700BFA4
:103A5400FCEC00E0002015490870002080F3148875
:103A6400BFF36F8F002080F30A8880F30B88FDF783
:103A7400D9FE00200E490860BFF34F8F0D4880F334
:103A8400088800F041F8202080F311880A484FF498
:103A94000061401880F30988EFF314800221084381
:103AA40080F31488BFF36F8FFEF7EEFFA21100209E
:103AB40094ED00E0E8210020A8140020BFF34F8F0C
:103AC4000549CA6802F4E062044B1343CB60BFF3B8
:103AD4004F8F00BFFDE700BF00ED00E00400FA05D2
:103AE400084BD3F89000C0F30720002306E0054AF2
:103AF400C2F898300021C2F8A01001338342F6DBEB
:103B0400704700BF00ED00E010B572B6002484F3E6
:103B14001388FFF7E5FF234608E003F120010E4A6E
:103B24004FF0FF3042F821000133DBB20F2BF4D900
:103B3400002308E003F16001074A4FF0FF3042F828
:103B440021000133DBB20F2BF4D962B6BFF34F8FE0
:103B5400BFF36F8F10BD00BF00E100E008B50A4B52
:103B64009B68834202D003F061FB08BDEFF3058339
:103B7400002BF8D0054B5A6842F080525A605A6ABA
:103B840022F400425A62EEE7880F002000ED00E0C4
:103B940010B584B00A4C23460A4A01210A4805F0AC
:103BA40023F90023019302930393084B0193E41A2E
:103BB4000294012101A805F01BF904B010BD00BF57
:103BC400000007200000002008AF0000E8010020EA
:103BD400024B034AC3F8C020704700BF00ED00E069
:103BE400AAFF4400034BC3F89800C3F89C10C3F821
:103BF400A020704700ED00E00E4BC3F89800C3F816
:103C04009800D3F89C000A7A60F304020A72D3F88D
:103C1400A020C2F34202087A62F347100872D3F874
:103C24009C2022F01F020A60D3F8A03023F01F0367
:103C3400CB60704700ED00E070B505460E460024E9
:103C440000E00134A6421EDD04EB44039A0005EBB8
:103C5400830359680029F4D0A85805F095F804EBBB
:103C640084030B4A42F8230010F1160F0CD0094BC1
:103C74001B78984209DA04EB840302EB83010431D4
:103C8400FFF7BAFFDDE7002070BD6FF01500FBE71A
:103C9400F80D00209F110020F0B583B000AF04465A
:103CA400072805D805F04AF820460C37BD46F0BD74
:103CB4006D4688B06B4613F1100231D00C213AB135
:103CC4000846042901DD194E5E61082800DD9C6167
:103CD4000B2928DD0C243AB10321397100217971B3
:103CE400B971F9717868186100216FF300016FF3FD
:103CF40041016FF382016FF3C501012363F388115E
:103D040004F47B7464F352216FF3DE416FF3DF71CB
:103D14000023074804F0B8FEAD466FF01500C4E771
:103D24006FF00041CBE76FF01B04D4E718AF00003D
:103D340008A600002DE9F04F89B000AF8246B960B3
:103D44007B6014464FF00008B5E06D4688B06B46C2
:103D540013F1100232D00C2142B10846042901DDCE
:103D6400944C5C61082801DDC3F818800B2928DD18
:103D74000C243AB10321397400217974B974F974AB
:103D84003869186100216FF300016FF341016FF38B
:103D940082016FF3C501012363F3881104F47B747A
:103DA40064F352216FF3DE416FF3DF710023824825
:103DB40004F06AFEAD466FF015043CE06FF000417C
:103DC400CAE76FF01B04D4E76D4688B06B4613F165
:103DD400100235D00C213AB10846042901DD774C94
:103DE4005C61082800DD9E610B292CDD0C243AB1AE
:103DF4000321397400217974B974F974386918612C
:103E040000216FF300016FF341016FF382016FF33F
:103E1400C501012363F3881104F47B7363F3522116
:103E24006FF3DE416FF3DF710023634804F02CFE6F
:103E3400AD466FF0150420462437BD46BDE8F08F2B
:103E44006FF00041C7E76FF01B04D0E7814568D1EC
:103E54002946F0B204F0A9FF2BE0594AC2F8986051
:103E6400D2F89C3003F01F0321F01F010B43C2F86A
:103E74009C302946E0B204F098FF044610F1160F76
:103E8400D9D0013415E0013B4D49C1F89860D1F80F
:103E9400A02002F01F0223F01F031343C1F8A03037
:103EA4002946E0B204F081FF044610F1160FC2D097
:103EB400013408F10108BB689845BCDA08EB4805F1
:103EC4004FEA850B0AEB85056E68002EF1D07B68FE
:103ED4002BB1284604F046FF00283FF436AF3146A4
:103EE4005AF80B0004F050FF064610F1160F3FF489
:103EF4006BAF84427FF768AF314BC3F89800D3F8B7
:103F04009C2022F01F02C3F89800D3F8A03043F09D
:103F14001F095AF80B3069681944481EF860934227
:103F240094D0934299D0FA689145ACD0013B24498E
:103F3400C1F89860D1F8A02002F01F0223F01F03FB
:103F44001343C1F8A0302946E0B204F02EFF044622
:103F540010F1160F3FF46FAF0130194BC3F898609E
:103F6400D3F89C103A7E61F304023A76D3F8A03079
:103F7400C3F34203D2B263F347123A765AF80B30D2
:103F84006A6813443B6123F01F03FA68A9EB020932
:103F94004B44013B23F01F03FB6107F11001C0B246
:103FA400FFF77AFE044610F1160F3FF444AF0134D4
:103FB4007FE700BF40AF000008A6000064AF000028
:103FC40000ED00E010B5034C01232278FFF7B2FEA8
:103FD400207010BD9F110020044B0522C3F89420CB
:103FE400BFF34F8FBFF36F8F704700BF00ED00E04A
:103FF400BFF35F8F024B0022C3F89420704700BFC9
:1040040000ED00E038B50E4B1D68082D15D8FFF7FC
:10401400EFFFFFF7DDFD002407E0094B596801EBD2
:104024000411204604F08AFE0134A542F5D8054B5C
:104034001D70FFF7D1FF002038BD4FF0FF30FBE7C4
:1040440088AF00009F110020014B1860704700BF2B
:104054002C00002000487047980E0020034BC01A23
:104064008010034B03FB00F0704700BF200E0020BC
:10407400B76DDBB638B505460C46FFF7EFFF0146D2
:104084004022034804F0E6FF01462846A04738BD15
:1040940008A3000030B583B005460C46FFF7DEFFE9
:1040A4000146402300932346054A064804F0ECFFEA
:1040B400011E01DB03B030BD2846A047FAE700BF6C
:1040C400D590000008A3000008B5052815D8DFE83E
:1040D40000F0031A1414151000210D4804F043FFD6
:1040E400836813F0070F08D10021094804F0A0FFEA
:1040F40003E00221064804F09BFF08BD03210448A5
:1041040004F096FFF9E70121014804F091FFF4E778
:1041140008A3000010B582B04FF02003EFF3118420
:1041240083F31288BFF36F8F144A136843F00201BC
:10413400116013F0010F09D1002384F31188BFF338
:104144006F8FB3B904F0CCFF02B010BD0DF10702BC
:1041540001214FF0502004F0CCFE9DF80730012BD4
:1041640001D00023E9E7FFF775FF04F04EFF0123B8
:10417400E3E70021024804F05BFFE5E7C00E0020FE
:1041840008A3000008B5084BD3E8EF2F22F0020182
:10419400C3E8E01F0028F7D112F0010F00D008BDDA
:1041A40004F0B2FFFBE700BFC00E002070B582B080
:1041B4000546012807D14FF05023D3F81C3403F0EF
:1041C4000303022B37D005F012FE044610B92B4B23
:1041D4001B787BB94FF02003EFF3118683F3128829
:1041E400BFF36F8F012494B94FF050230222C3F818
:1041F40008230CE00026F6E7FCB13046FEF7CEFAC1
:104204004FF05023D3F81835DBB2012B19D00DF140
:10421400070200214FF0502004F06BFE0028EBD081
:104224009DF80730022B01D0012DE5D104B386F3AC
:104234001188BFF36F8F02B070BD012004F078FFC6
:10424400DEE74FF05023D3F80431002BDFD04FF0DA
:1042540050230022C3F80421D3F804210222C3F816
:104264001825074A2021C2F8801101229A60CEE75E
:104274004FF050230222C3F80423DCE7A2110020EC
:1042840000E100E000B585B0CDF800D0CDF804D051
:1042940000230293012303936B46074A04F010FFA3
:1042A400002805DB4FF480420023684602F0E2FB5D
:1042B40005B05DF804FB00BF6191000070B50646CF
:1042C40000220121052004F0EEFC114801F0BAF9A6
:1042D400104B984219D105F012FC0024032C12D87B
:1042E4002146304604F03FFE05462146304604F0A0
:1042F40047FE094903F0B9FD002805DB0123AB6043
:104304001C44E4B2EAE7002070BD6FF00400FBE750
:10431400CD4000000000AD0BC0AF000010B5044656
:104324000E4B0121D3E8EF2FC3E8E01F0028F9D199
:104334001AB1631E012B0DD910BD094804F020FEEB
:10434400084900234B608B60CB6001238B6003F032
:10435400A9FDEEE72046FFF729FFEDE71C0E00203C
:1043640008A300000C0E002010B504460A2806D04D
:10437400E1B2064883685B689847204610BD03484D
:1043840083685B680D219847F2E700BF50A30000E3
:1043940010B5044C2046FFF757FE2046FCF7D4FC2A
:1043A40010BD00BF6D43000008B5054805F0A7FC2B
:1043B40018B1FFF7EDFF002008BD6FF01200FBE716
:1043C40050A3000028B1012801D103487047002000
:1043D40070470248704700BF20A3000038A30000C4
:1043E400F0B585B00E46194643681B7B06F01F05E1
:1043F40045EA4315B2F5001F22D0074614460023B0
:1044040001930293104604F083FF8DF804007B6847
:104414009968F14011F0010F02D1B4F1A07F14D0DA
:10442400002301AA1946284601F008FC1A4B9842B9
:104434002FD10121284601F065FD002005B0F0BD13
:10444400284601F091FD0020F8E705F01F036A09F2
:10445400012A12D0114A803352F8233013F0010F8D
:10446400DED10DF10F01284601F0F0FC0C4B98420F
:1044740005D00DF10F030293D2E70A4AEBE70DF1E1
:104484000F0001F037FD044B9842F2D06FF00B009F
:10449400D4E76FF01500D1E70000AD0B0025845080
:1044A4000400AD0B002884502DE9F04186B00E467F
:1044B4001446D0F8048098F80C3001F01F0545EA42
:1044C40043150DF11701284601F0C0FC074614F40A
:1044D400403F39D00021039104910B4603AA28469A
:1044E40001F0ACFB324B98425FD19F423CD014F4B4
:1044F400003F47D00DF10301204604F096FE074625
:1045040048BB9DF803308DF8043014F4803F0CBF91
:10451400012300238DF80530204604F0C9FE8DF8F0
:10452400060014F4002F24D0D8F804200123B3404B
:104534009360002201A9284601F016FC1C4B984206
:1045440009D06FF0150706E0284601F02FFD184B3F
:104554009F4204D00027384606B0BDE8F0819DF89C
:10456400170001F0BFFCF5E79DF8170001F0BAFC55
:10457400BDE714F4802FDCD0D8F804200123B34025
:10458400D360D6E7204604F093FE8DF8080000239C
:104594001A4602A9284601F051FB054B984201D165
:1045A4000027D8E76FF01507D5E76FF01507D2E7B6
:1045B4000000AD0B08B501F08BFC08B1002008BD6C
:1045C40001F05CFC084B98420AD10021074801F035
:1045D40037FC002205210D2004F065FB0020EEE7E6
:1045E4006FF00400EBE700BF0000AD0B4D9300003B
:1045F40043681A68B1F5164F6FD03AD8B1F5165F13
:104604006ED00AD9B1F5E14F75D024D947F61223FB
:1046140099422BD14FF4000313E0B1F5966F61D0AA
:1046240007D9B1F5166F63D0B1F5965F10D13C4B45
:1046340007E0B1F5967F58D0B1F5167F05D14FF458
:104644001C33C2F82435002070476FF01500704702
:104654006FF015007047B1F5615F4ED0B1F5964F1C
:1046640001D1304BEDE76FF0150070476FF0150086
:104674007047B1F5613F42D009D9B1F5612F46D0F9
:104684001FD9294B994248D14FF08053D9E7B1F54E
:10469400963F37D005D9B1F5E13F0FD14FF0EB7319
:1046A400CFE74DF6C02399422ED0B1F5614F02D128
:1046B4004FF46B03C5E76FF0150070476FF01500FA
:1046C40070471A4B994225D0B1F5E12F02D14FF032
:1046D400E863B6E76FF0150070474FF41D03B0E7C9
:1046E400134BAEE74FF49E23ABE74FF4A033A8E798
:1046F4004FF41D23A5E70F4BA3E70F4BA1E74FF0A2
:104704006C739EE70D4B9CE74FF4650399E74FF0FC
:10471400706396E74FF0806393E76FF0150070477E
:1047240000B0130000A04E0040420F0090D00300E0
:104734000050270000C0750000F03A0000903A01D4
:10474400F8B505460E46076905F051FB10B9124B42
:104754001B7883B94FF02003EFF3118483F312889D
:10476400BFF36F8F284604F0B2FE40B984F311887A
:10477400BFF36F8FEEE7284604F00EFF04463B6953
:104784001E7001223969284604F0BBFE84F31188A7
:10479400BFF36F8FF8BD00BFA211002030B589B000
:1047A40005460C4601F1180000F0C2FF1D4B98426B
:1047B4000FD1237E43F00043C5F8A031C5F88C30F7
:1047C400227E01239340184AC2F80435002009B020
:1047D40030BD164B079302238DF8043000238DF867
:1047E40005308DF806308DF80730019A0692194687
:1047F40063F3000163F3410163F3820163F3C501D1
:10480400012262F38811082262F3522163F3DE412C
:1048140063F3DF7106AA064804F036F96FF004006A
:10482400D5E700BF0000AD0B00700150B8B0000028
:1048340030A6000021F07F4100F5A870014B43F839
:10484400201070470050015000F5A870014B53F838
:1048540020007047005001504FF480338340024AD7
:10486400C2F84433704700BF005001504FF4803306
:104874008340024AC2F84833704700BF00500150D9
:10488400014BD3F8040570470050015010B50123C3
:1048940083406FEA030C0C4AD2E8EF1F01EA0C0EC6
:1048A400C2E8E4EF002CF7D14FF48032824007488D
:1048B400C0F80823BFF35F8FBFF36F8F0B4214BFA1
:1048C4000120002010BD00BFE40E00200050015064
:1048D40038B5044604F00BFF05464FF48033A3407B
:1048E400144AD2F80423134205D10024284604F0C4
:1048F40007FF204638BD0123A340DB430E4AD2E81C
:10490400EF1F01EA0300C2E8EC0FBCF1000FF6D17F
:1049140049B904F150039B009BB203F1502303F502
:1049240080331B6823B1204604F0D2FE0124DDE766
:104934000024DBE700500150DC0E002001B9704771
:10494400012383400D4AD2E8EFCF4CEA030CC2E8BE
:10495400E1CF0029F7D14FF480338340084AC2F8ED
:104964000433084BD3E8AF3FC34013F0010FE6D044
:10497400054B4FF40012C3F80021E0E7E40E0020D9
:1049840000500150DC0E002000E100E02DE9F84366
:10499400074614461E461046194604F0A5FE054671
:1049A400154B1A68A01A1C605E60A5F50013B3F5D8
:1049B400400F09D3002402F05DFD3846FFF744FFA1
:1049C400A8420ED0BDE8F8830C4B1B681A0A1B06DC
:1049D40015EB030842F10009094BC3E900890124DE
:1049E400E9E71CB13846FFF737FFEBE74FF4000166
:1049F4003846FFF71FFFF5E7F8060020E80E002011
:104A040000070020C3B29B0001481844704700BF50
:104A14004051015000F5A870014B53F82000704735
:104A24000050015038B50D4B1C68250A2406BFF30D
:104A34005F8FFFF725FF0346001945F10001B3F529
:104A4400801F0AD2064BD3E90023904271EB030383
:104A540003D210F1807041F1000138BDE80E00204E
:104A640000070020F8B5064614461D4610461946B0
:104A740004F03AFE0746FFF7D5FFA04271EB0503A9
:104A84001DD2201A65EB0101194B984271F1000106
:104A94002BD2184B03EB0613D3E90223AB4208BF16
:104AA400A24216D03946304604F02FFE394604F0AF
:104AB4000BFE001945F1000304461D4609E00123DD
:104AC400B3400D4AD2E8EF0F1843C2E8E10F0029C2
:104AD400F8D1084B320103EB0616C6E902450699E4
:104AE4009950079B73600020F8BD6FF01500FBE739
:104AF40001000001D8060020DC0E002030B583B090
:104B040000231F4AC2F808350FE01E4A02EB0312C5
:104B14004FF0FF304FF0FF31C2E902014FF4803211
:104B24009A401749C1F804230133012BEDDD144CDD
:104B34000225C4F80453144B4FF40012C3F8802127
:104B440000220121152004F0AEF8152004F0A1F88C
:104B54000123A36023600D4B03221A600C4B1D60DC
:104B6400002401940B4B00930B4A0023204604F0CD
:104B740012FE2846FFF7D2FB204603B030BD00BF2B
:104B840000500150D806002000E100E0E40E0020AF
:104B9400E00E002091490000FFFF7F002DE9F0475F
:104BA40082B00446FFF794FE10B902B0BDE8F08766
:104BB400FFF738FF82460D4604F099FD0646134B75
:104BC40003EB0413D3E90289C24575EB09050BD243
:104BD4000025304604F094FD002DE6D000974246AF
:104BE4004B462046A847E0E7084A230102EB04119C
:104BF400D5584F680020D0504FF0FF324FF0FF33AC
:104C0400C1E902232046FFF731FEE2E7D80600207F
:104C140010B50E4BD3F8043313F0020F0DD00B4B29
:104C2400D3F804314BB1094B0022C3F80421D3F863
:104C34000431074A136801331360002403E020465B
:104C4400FFF7ACFF0134012CF9DD10BD0050015019
:104C5400E80E0020124B1868F0B100B5B0FA80F0ED
:104C6400C0F11F0001238340DB430D49D1E8EF2F3E
:104C740002EA030CC1E8EECFBEF1000FF6D122FA2E
:104C840000F313F0010F05D1054B18680028E5D196
:104C94006FF00B005DF804FB6FF00B00704700BF72
:104CA400E00E002001238340044AD2E8EF0F1843AA
:104CB400C2E8E10F0029F8D1704700BFE00E0020E0
:104CC40010B582B0B0F1FF3F06D0012806DDB0F583
:104CD400000F05DA441E04E00F48F8E7002400E062
:104CE4000D4CFFF79FFE0D4B1A685B68801AB0F5F8
:104CF400000F00D300242044411CB1F5000F00D361
:104D040005490020521801900549009143F1000320
:104D140004F041FD02B010BDFFFF7F00F806002043
:104D24009149000008B5FFF77DFE024B1B68C01ACD
:104D340008BD00BFF806002030B400F01F0C400985
:104D4400012818D00D4D0CF1800055F8204004F0D6
:104D5400E04C41EA420141EA83039DF8082043EA1A
:104D640002239DF80C2043EA024343EA0C0345F86E
:104D7400203030BC7047024DE5E700BF0025845069
:104D84000028845059B900F01F014009012804D0BB
:104D9400094A01238B40D3607047084AF9E700F0C1
:104DA4001F014009012804D0034A01238B4093606A
:104DB4007047024AF9E700BF002584500028845058
:104DC4002DE9F04F85B007468B469046002422E03B
:104DD4004FF0FF352CE0C8F80C55012603963146F8
:104DE4007F2D16D0B1F1FF3F40F00E8157F80A3005
:104DF40013F4005F02D001260022039200220192E4
:104E0400CDF80090C3F3C113324603992846FFF747
:104E140093FF0134E4B25C4580F0FA804FEA840ADF
:104E240057F82430C3F3432903F07F057F2DCFD0F7
:104E34001B0C222B00F2EE8001A252F823F000BFDB
:104E4400DB4D0000D14E0000DF4E0000EB4E0000B1
:104E5400F94E0000074F0000134F000019500000E6
:104E6400195000001950000019500000214F000093
:104E7400354F00001950000019500000195000006F
:104E8400195000001950000019500000195000007A
:104E94001950000019500000494F00005B4F0000FA
:104EA4006D4F00007F4F00001950000019500000A2
:104EB40019500000914F0000A14F0000AD4F0000B9
:104EC400BD4F0000CD4F0000DD4F0000C8F8145561
:104ED400002603964FF0FF3182E7C8F808550126F3
:104EE400039631467CE7C8F81055002603964FF028
:104EF400FF3175E7C8F808550026012303933146AE
:104F04006EE7C8F80C5501260396002168E7C8F837
:104F14001055002603964FF0FF3161E7C8F8085595
:104F2400B9F1000F60D0002603964FF0FF3157E728
:104F3400C8F80C55B9F1000F5ED0002603964FF067
:104F4400FF314DE7C8F8605557F80A10C1F38031B6
:104F54000126039644E7C8F8645557F80A10C1F3CC
:104F64008031012603963BE7C8F8685557F80A10C4
:104F7400C1F380310126039632E7C8F86C5557F81F
:104F84000A10C1F380310126039629E7C8F8245595
:104F94000126002303934FF0FF3121E7C8F8285579
:104FA4000126039631461BE7C8F830550126002335
:104FB40003934FF0FF3113E7C8F83455012600235B
:104FC40003934FF0FF310BE7C8F83855012600234F
:104FD40003934FF0FF3103E7C8F83C550126002343
:104FE40003934FF0FF31FBE64E46CDF80C904FF0A3
:104FF400FF314FF00609F3E64E46CDF80C904FF022
:10500400FF314FF00609EBE62846FFF7BBFEEDE65D
:10501400002001E06FF0850005B0BDE8F08F00BF0F
:1050240030B589B00C46056943680F2906D81B685A
:10503400CB4013F0010F1DD1002300E00023002B0F
:1050440061D0CAB9D5F88430E34013F0010F5DD0C4
:10505400E0B201F037F8D5F884300122A24023EA07
:105064000203C5F88430D5F88430002B46D00020E4
:1050740009B030BD0123E2E7D5F88430E34013F0F2
:10508400010F46D1002AE3D055F824306BB1D5F88E
:1050940084307BB3D5F884300122A2401343C5F891
:1050A4008430E0B201F006F8DDE71B4B07930222DF
:1050B4008DF8042000238DF805308DF806308DF826
:1050C400073001990691194663F3000163F3410126
:1050D40063F3820163F3C50162F38811082262F36A
:1050E400522163F3DE4163F3DF7106AA0B4803F038
:1050F400CBFCCCE72A2003F0CCFDCBE72A2003F03D
:10510400CDFD0020B4E76FF01500B1E76FF0770034
:10511400AEE76FF07700ABE73CB1000000A60000FB
:1051240030B589B005460C461AB3204B07930222CA
:105134008DF8042000238DF805308DF806308DF8A5
:10514400073001990691194663F3000163F34101A5
:1051540063F3820163F3C50162F38811082262F3E9
:10516400522163F3DE4163F3DF7106AA104803F0B2
:105174008BFC6B680F2C06D85B68E34013F0010FBF
:105184000FD1002300E000236BB1E1B28900C9B262
:1051940001F1A04101F5283101230B60002009B081
:1051A40030BD0123F0E76FF01500F8E76CB10000A3
:1051B40000A60000F0B58FB004460D46D1F880601B
:1051C40073680F2806D81B68C34013F0010F16D16B
:1051D400002300E00023A3B1D5F88430E34013F0AA
:1051E400010F33D055F824703FB104F110020023AD
:1051F40055F8222021463046B8470FB0F0BD0123B0
:10520400E9E7254B079302228DF8042000238DF84B
:1052140005308DF806308DF807300199069119464E
:1052240063F3000163F3410163F3820163F3C50196
:1052340062F38811082262F3522163F3DE4163F3BF
:10524400DF7106AA154803F01FFCC5E7144B0D9344
:1052540002228DF8042000238DF805308DF80630E5
:105264008DF8073001990C91194663F3000163F33B
:10527400410163F3820163F3C50162F388110822DB
:1052840062F3522163F3DE4163F3DF710CAA034836
:1052940003F0FAFBA6E700BF88B1000000A60000F7
:1052A400A4B1000010B5AEB044688422002101A866
:1052B40003F0FEFD6368B3F5803F06D22368B3F5BF
:1052C400803F27D2002321934AE0364B27930222C2
:1052D4008DF8002000238DF801308DF802308DF810
:1052E400033000992691194663F3000163F34101E9
:1052F40063F3820163F3C50162F38811082262F348
:10530400522163F3DE4163F3DF7126AA264803F0DA
:10531400BBFBD3E7254B2D9302228DF800200023FD
:105324008DF801308DF802308DF8033000992C91FE
:10533400194663F3000163F3410163F3820163F3EC
:10534400C50162F38811082262F3522163F3DE413E
:1053540063F3DF712CAA144803F096FBB2E7013320
:105364000F2B1AD86268DA4012F0010F06D001221E
:105374009A402EA901EB830141F8B42C2268DA404B
:1053840012F0010FEBD00121994003F110022EA875
:1053940000EB820242F8B41CE1E701A800F064FECD
:1053A4002EB010BDC4B1000000A60000F0B1000092
:1053B40010B504460269C2F880000749002000F0D5
:1053C4003BFE002201212A2003F06DFC2046FFF75A
:1053D40069FF002010BD00BFB951000010B588B0AE
:1053E400FCF72EFC144B079302238DF804300024A1
:1053F4008DF805408DF806408DF80740019B069313
:10540400214664F3000164F3410164F3820164F30F
:10541400C501012363F38811082363F3522164F364
:10542400DE4164F3DF71234606AA044803F02CFB33
:10543400204603F076FC00BF4CB20000E0A500005B
:105444004FF05023D3F8582502F00302024BD34007
:10545400024A1360704700BF0020A10754000020D7
:1054640008B504F06DFA68B14E4BD3F8203A4BB945
:105474004C4B0D22C3F8202A0122C3F81C29002218
:10548400C3F81C2900220BE002F160034FF47F01F2
:1054940051F83310DB0003F57F035B680B600132C6
:1054A4001F2A08D802F160034FF47F0151F833300A
:1054B400B3F1FF3FE8D104F01BFA30B1394B292294
:1054C400C3F80C270322C3F83C2704F0C5F940B104
:1054D400354B364AC3F830254FF050230122C3F828
:1054E400582504F0CDF918B1314B0022C3F84C25EE
:1054F40004F0DEF968B14FF05023D3F8003413F010
:10550400010F06D04FF050230022C3F81421C3F832
:10551400182104F0E1F960B14FF05023D3F80034BE
:1055240013F0010F05D04FF050236FF00102C3F8C0
:10553400002404F0F1F918B11A4B6522C3F80C27C2
:1055440004F012FA20B11A4BD3F82034002B11DBEB
:10555400184AD2F88C3043F44063C2F88C30164AAF
:105564001168164BC3F84415D269C3F84C25FFF7EC
:1055740067FF08BD4FF050230322C3F8182501220A
:105584009A604FF05023D3F80431002BF9D04FF038
:1055940050230022C3F804210122DA60C3F818253D
:1055A400D6E700BF00400050009003504400EFBE17
:1055B4000020035000ED00E00080FF000060005078
:1055C40010B50468B4FA84F3C3F11F035FFA83FCD3
:1055D400002B12DB012202FA03F324EA0303D0E8CE
:1055E400EF2FA24204D1C0E8EE3FBEF1000FF6D186
:1055F400E7D181F800C0024810BD0248FCE700BFB3
:105604000000AD0B0200AD0B0368CB4013F0010F9B
:1056140011D100B5026801238B401343D0E8EFCFCA
:10562400944504D1C0E8EE3FBEF1000FF6D1F1D1AC
:1056340002485DF804FB0248704700BF0000AD0B50
:105644000400AD0B054B1B792BB9044B18600122E8
:105654001A71034870470348704700BF740F002055
:105664000000AD0B0C00AD0B08B54FF05023D3F880
:10567400003163B14FF050230020C3F80001D3F888
:1056840000210122C3F80823284B1B6898474FF0D8
:105694005023D3F80431BBB14FF050230022C3F898
:1056A4000421D3F80421D3F8182402F00302D3F818
:1056B4001834012A31D04FF050230222C3F80823B2
:1056C4001A4B1B68012098474FF05023D3F8203120
:1056D40073B14FF050230022C3F82021D3F82021C6
:1056E4004FF48072C3F80823104B1B6804209847BA
:1056F4004FF05023D3F8243173B14FF050230022DC
:10570400C3F82421D3F824214FF40072C3F80823EA
:10571400064B1B680520984708BD4FF05023022212
:10572400C3F8182501229A60CEE700BF740F002049
:1057340008B501460148FFF743FF08BD58000020A3
:1057440008B5014601238340034AC2F808350348DB
:10575400FFF75AFF08BD00BF007001505800002039
:10576400F0B51C46059F069E00F01F0C4009012859
:1057740034D0274D0CF1800355F8233081B3012038
:1057840082B34FF0020E40EA0E0074B34FF00C0ED9
:1057940040EA0E0067B34FF4706E40EA0E0056B351
:1057A4004FF4403E40EA0E0023EA000031B30B7888
:1057B40032B312785200134324B322789200134375
:1057C40017B33A781202134306B332781204134320
:1057D40003430CF1800C45F82C30F0BD0D4DC9E7A6
:1057E4000020CDE74FF0000ECDE74FF0000ECFE7DD
:1057F4004FF0000ED1E74FF0000ED3E70023D7E7B8
:105804000022D8E70022DAE70022DCE70022DEE704
:10581400002584500028845000F01F02400901280C
:105824000AD00649803251F8223003F0E04343F0B5
:10583400020341F8223070470149F3E70025845000
:105844000028845000B583B084468E460C4B93E800
:10585400030002AB03E90300634609E002A901EB7C
:10586400830151F8081C086A42F8040B08620133EA
:105874000CEB0E009842F1D803B05DF804FB00BFB6
:10588400A0A600000830034B33F8100000F001001C
:10589400704700BF5C0000200830034B33F8100051
:1058A400C0F34010704700BF5C0000200830044B78
:1058B40033F8100010F01C0018BF0120704700BF1F
:1058C4005C0000200830034B33F81000C0F34000A4
:1058D400704700BF5C0000200830024B33F8100012
:1058E400400B70475C000020002204E04FF0FF33BF
:1058F40083420FD001322F2A0AD802F10803064945
:1059040031F8133013F4807FF0D0C3F34323EFE76F
:1059140000207047012070475C000020002313B171
:105924004FF0FF307047074A52F83320824201D0CB
:105934000133F4E7034A02EBC30252688A42F7D107
:10594400184670475C00002000F108020E4B33F843
:105954001230C3F38203042B10D0052B10D000F0B7
:105964001F024009012807D0084B1B69D34013F0DC
:10597400010F07D003207047054BF6E7032070475B
:1059840002207047022070475C00002000258450EC
:10599400002884500830064B33F8100010F4807F40
:1059A40004D0C0F3432003EBC000704700207047CD
:1059B4005C00002070B504460D46FFF7EBFF20B1F4
:1059C4000668426829462046B047044B9B6823B1C9
:1059D400024AD26829462046984770BD5C000020E0
:1059E40070B506460C461546084604F070F960B9D1
:1059F400022D26D00221304604F041F9032C24D094
:105A0400022D20D0032D25D070BD21463046FFF74E
:105A1400D1FF06F01F037209012A10D00F4A803308
:105A240052F82330C3F301439D42EDD100213046A7
:105A340004F025F92946304604F021F9E4E7084A40
:105A4400EDE70321D7E7012CDCD121463046FFF7EF
:105A5400B1FFD9E7022CD7D1F7E700BF0025845066
:105A64000028845000F108020E4B33F8123013F46E
:105A7400807F16D010B5C3F34324104623F4F853A3
:105A8400084A22F810302046FFF72EFF00B110BD5F
:105A94000448002340F8343021467430FFF7B4FD45
:105AA400F5E770475C00002010B50446FFF7F4FEEC
:105AB40050B12046FFF710FF084B00F5A2700022FA
:105AC40043F8202043F820202046FFF7CBFF08347A
:105AD400034B002223F8142010BD00BF00D0005057
